:1000000000308A001A28000023308400831300087F
:10001000031917280630F800F701F70B0D28F80B25
:100020000C287B30F700F70B1328800B0A288A1165
:100030000A12412803081F39830083161F149F14D6
:100040001F159F1107309C00831300308800831216
:10005000A1012108073C031C45280130A20021080A
:10006000F800031937280310A20DF80B3328831664
:1000700088018312220888000430A200FA30A3000D
:0E0080000428A20B3E28A10A29282828630084
:02400E00723FFF
:00000001FF
;PIC16F877A
;CRC=A84B  CREATED="03-Nov-25 20:42"
