:1000000000308A001A28000023308400831300087F
:10001000031917280630F800F701F70B0D28F80B25
:100020000C287B30F700F70B1328800B0A288A1165
:100030000A12402803081F39830083161F149F14D7
:100040001F159F1107309C0083138312A10180307C
:1000500083168800081083120810831688108312F4
:1000600088108316081183120811831688118312D1
:100070008811881B47280230A2009630A30004286C
:10008000A20B3D28A10A2108053C0319A101A108E2
:10009000031D5A288316081083120810831688102F
:1000A0008312881083160811831208118316881191
:1000B00083128811210B6C288316081083120814F0
:1000C0008316881083128810831608118312081172
:1000D00083168811831288112108023C031D802891
:1000E0008316081083120810831688108312881450
:1000F0008316081183120811831688118312881140
:100100002108033C031D942883160810831208104D
:10011000831688108312881083160811831208151D
:1001200083168811831288112108043C031DA82816
:100130008316081083120810831688108312881003
:1001400083160811831208118316881183128815EB
:0401500039286300E7
:02400E00723FFF
:00000001FF
;PIC16F877A
;CRC=745A  CREATED="19-Nov-25 20:16"
