:1000000000308A0018280000243084008313000880
:10001000031917280630F800F701F70B0D28F80B25
:100020000C287B30F700F70B1328800B0A280800F8
:1000300003081F39830083161F149F141F159F1177
:1000400007309C008313003088008312A101A201B5
:100050002208073C031C42280130F7002208F80060
:10006000031936280310F70DF80B32287708A1047E
:10007000831688018312210888006430A4000420BC
:10008000A20A28280130A3002308083C031C5E288C
:10009000FF30F7002308F800031952280310F70C6B
:1000A000F80B4E287708A1058316880183122108D2
:1000B00088006430A4000420A30A44282628630092
:02400E00723FFF
:00000001FF
;PIC16F877A
;CRC=FECC  CREATED="12-Nov-25 20:35"
